{
  "_format": "hh-sol-artifact-1",
  "contractName": "Contract",
  "sourceName": "contracts/contract.sol",
  "abi": [
    {
      "inputs": [
        {
          "internalType": "address",
          "name": "_party1",
          "type": "address"
        }
      ],
      "stateMutability": "payable",
      "type": "constructor"
    },
    {
      "anonymous": false,
      "inputs": [
        {
          "indexed": true,
          "internalType": "address",
          "name": "author",
          "type": "address"
        },
        {
          "indexed": false,
          "internalType": "string",
          "name": "message",
          "type": "string"
        },
        {
          "indexed": false,
          "internalType": "string",
          "name": "functionName",
          "type": "string"
        }
      ],
      "name": "UpdatePosted",
      "type": "event"
    },
    {
      "inputs": [
        {
          "internalType": "uint256",
          "name": "amount",
          "type": "uint256"
        }
      ],
      "name": "claimETH",
      "outputs": [],
      "stateMutability": "nonpayable",
      "type": "function"
    },
    {
      "inputs": [],
      "name": "isActive",
      "outputs": [
        {
          "internalType": "bool",
          "name": "",
          "type": "bool"
        }
      ],
      "stateMutability": "view",
      "type": "function"
    },
    {
      "inputs": [],
      "name": "party1",
      "outputs": [
        {
          "internalType": "address",
          "name": "",
          "type": "address"
        }
      ],
      "stateMutability": "view",
      "type": "function"
    },
    {
      "inputs": [],
      "name": "party2",
      "outputs": [
        {
          "internalType": "address",
          "name": "",
          "type": "address"
        }
      ],
      "stateMutability": "view",
      "type": "function"
    },
    {
      "inputs": [],
      "name": "rideProviderAcceptedStatus",
      "outputs": [
        {
          "internalType": "bool",
          "name": "",
          "type": "bool"
        }
      ],
      "stateMutability": "view",
      "type": "function"
    },
    {
      "inputs": [],
      "name": "rideProviderArrivedAtDropoffLocation",
      "outputs": [
        {
          "internalType": "bool",
          "name": "",
          "type": "bool"
        }
      ],
      "stateMutability": "view",
      "type": "function"
    },
    {
      "inputs": [],
      "name": "rideProviderArrivedAtPickupLocation",
      "outputs": [
        {
          "internalType": "bool",
          "name": "",
          "type": "bool"
        }
      ],
      "stateMutability": "view",
      "type": "function"
    },
    {
      "inputs": [],
      "name": "rideProviderCanceldRide",
      "outputs": [
        {
          "internalType": "bool",
          "name": "",
          "type": "bool"
        }
      ],
      "stateMutability": "view",
      "type": "function"
    },
    {
      "inputs": [],
      "name": "rideProviderStartedRide",
      "outputs": [
        {
          "internalType": "bool",
          "name": "",
          "type": "bool"
        }
      ],
      "stateMutability": "view",
      "type": "function"
    },
    {
      "inputs": [
        {
          "internalType": "string",
          "name": "_message",
          "type": "string"
        }
      ],
      "name": "setRideProviderAcceptedStatus",
      "outputs": [],
      "stateMutability": "nonpayable",
      "type": "function"
    },
    {
      "inputs": [
        {
          "internalType": "string",
          "name": "_message",
          "type": "string"
        }
      ],
      "name": "setRideProviderArrivedAtDropoffLocation",
      "outputs": [],
      "stateMutability": "nonpayable",
      "type": "function"
    },
    {
      "inputs": [
        {
          "internalType": "string",
          "name": "_message",
          "type": "string"
        }
      ],
      "name": "setRideProviderArrivedAtPickupLocation",
      "outputs": [],
      "stateMutability": "nonpayable",
      "type": "function"
    },
    {
      "inputs": [
        {
          "internalType": "string",
          "name": "_message",
          "type": "string"
        }
      ],
      "name": "setRideProviderCanceldRide",
      "outputs": [],
      "stateMutability": "nonpayable",
      "type": "function"
    },
    {
      "inputs": [
        {
          "internalType": "string",
          "name": "_message",
          "type": "string"
        }
      ],
      "name": "setRideProviderStartedRide",
      "outputs": [],
      "stateMutability": "nonpayable",
      "type": "function"
    },
    {
      "inputs": [
        {
          "internalType": "string",
          "name": "_message",
          "type": "string"
        }
      ],
      "name": "setUserCanceldRide",
      "outputs": [],
      "stateMutability": "nonpayable",
      "type": "function"
    },
    {
      "inputs": [
        {
          "internalType": "string",
          "name": "_message",
          "type": "string"
        }
      ],
      "name": "setUserMarkedRideComplete",
      "outputs": [],
      "stateMutability": "nonpayable",
      "type": "function"
    },
    {
      "inputs": [
        {
          "internalType": "string",
          "name": "_message",
          "type": "string"
        }
      ],
      "name": "setUserReadyToStartRide",
      "outputs": [],
      "stateMutability": "nonpayable",
      "type": "function"
    },
    {
      "inputs": [],
      "name": "signContract",
      "outputs": [],
      "stateMutability": "payable",
      "type": "function"
    },
    {
      "inputs": [],
      "name": "userCanceldRide",
      "outputs": [
        {
          "internalType": "bool",
          "name": "",
          "type": "bool"
        }
      ],
      "stateMutability": "view",
      "type": "function"
    },
    {
      "inputs": [],
      "name": "userMarkedRideComplete",
      "outputs": [
        {
          "internalType": "bool",
          "name": "",
          "type": "bool"
        }
      ],
      "stateMutability": "view",
      "type": "function"
    },
    {
      "inputs": [],
      "name": "userReadyToStartRide",
      "outputs": [
        {
          "internalType": "bool",
          "name": "",
          "type": "bool"
        }
      ],
      "stateMutability": "view",
      "type": "function"
    }
  ],
  "bytecode": "0x608060405260405162003c0238038062003c028339818101604052810190620000299190620001b2565b806000806101000a81548173ffffffffffffffffffffffffffffffffffffffff021916908373ffffffffffffffffffffffffffffffffffffffff1602179055506000600160156101000a81548160ff0219169083151502179055506000600160166101000a81548160ff0219169083151502179055506000600160176101000a81548160ff0219169083151502179055506000600160186101000a81548160ff0219169083151502179055506000600160196101000a81548160ff02191690831515021790555060006001601a6101000a81548160ff02191690831515021790555060006001601b6101000a81548160ff02191690831515021790555060006001601c6101000a81548160ff02191690831515021790555050620001e4565b600080fd5b600073ffffffffffffffffffffffffffffffffffffffff82169050919050565b60006200017a826200014d565b9050919050565b6200018c816200016d565b81146200019857600080fd5b50565b600081519050620001ac8162000181565b92915050565b600060208284031215620001cb57620001ca62000148565b5b6000620001db848285016200019b565b91505092915050565b613a0e80620001f46000396000f3fe60806040526004361061012a5760003560e01c80637fd3b7fd116100ab578063c1bf0bc31161006f578063c1bf0bc31461038d578063cc31342b146103b6578063df62f4fa146103df578063f31a951a14610408578063fb92498f14610431578063fe96973a1461045a5761012a565b80637fd3b7fd146102d9578063a46192ee14610304578063b2ece4831461032f578063b8b4f1a014610358578063b9fa9c68146103625761012a565b80632d902021116100f25780632d902021146102045780633bfc1c411461022f5780634ff792611461025a5780636bea3f9f146102855780636e6d8429146102b05761012a565b80631f5ed3f61461012f578063218c2e7f1461015857806322f3e2d41461018357806323db77fa146101ae5780632561deff146101d9575b600080fd5b34801561013b57600080fd5b5061015660048036038101906101519190612076565b610483565b005b34801561016457600080fd5b5061016d61070c565b60405161017a91906120da565b60405180910390f35b34801561018f57600080fd5b5061019861071f565b6040516101a591906120da565b60405180910390f35b3480156101ba57600080fd5b506101c3610732565b6040516101d091906120da565b60405180910390f35b3480156101e557600080fd5b506101ee610745565b6040516101fb9190612136565b60405180910390f35b34801561021057600080fd5b50610219610769565b6040516102269190612136565b60405180910390f35b34801561023b57600080fd5b5061024461078f565b60405161025191906120da565b60405180910390f35b34801561026657600080fd5b5061026f6107a2565b60405161027c91906120da565b60405180910390f35b34801561029157600080fd5b5061029a6107b5565b6040516102a791906120da565b60405180910390f35b3480156102bc57600080fd5b506102d760048036038101906102d29190612076565b6107c8565b005b3480156102e557600080fd5b506102ee610a4f565b6040516102fb91906120da565b60405180910390f35b34801561031057600080fd5b50610319610a62565b60405161032691906120da565b60405180910390f35b34801561033b57600080fd5b5061035660048036038101906103519190612076565b610a75565b005b610360610cfc565b005b34801561036e57600080fd5b50610377610fd4565b60405161038491906120da565b60405180910390f35b34801561039957600080fd5b506103b460048036038101906103af9190612076565b610fe7565b005b3480156103c257600080fd5b506103dd60048036038101906103d89190612076565b611221565b005b3480156103eb57600080fd5b5061040660048036038101906104019190612076565b6114c6565b005b34801561041457600080fd5b5061042f600480360381019061042a9190612076565b61174f565b005b34801561043d57600080fd5b5061045860048036038101906104539190612076565b6119a6565b005b34801561046657600080fd5b50610481600480360381019061047c9190612187565b611c2f565b005b600160149054906101000a900460ff166104d2576040517f08c379a00000000000000000000000000000000000000000000000000000000081526004016104c990612211565b60405180910390fd5b600160009054906101000a900473ffffffffffffffffffffffffffffffffffffffff1673ffffffffffffffffffffffffffffffffffffffff163373ffffffffffffffffffffffffffffffffffffffff1614610562576040517f08c379a0000000000000000000000000000000000000000000000000000000008152600401610559906122a3565b60405180910390fd5b600160179054906101000a900460ff166105b1576040517f08c379a00000000000000000000000000000000000000000000000000000000081526004016105a89061235b565b60405180910390fd5b600160189054906101000a900460ff1615610601576040517f08c379a00000000000000000000000000000000000000000000000000000000081526004016105f8906123ed565b60405180910390fd5b6001601c9054906101000a900460ff1615610651576040517f08c379a00000000000000000000000000000000000000000000000000000000081526004016106489061247f565b60405180910390fd5b6001601b9054906101000a900460ff16156106a1576040517f08c379a000000000000000000000000000000000000000000000000000000000815260040161069890612511565b60405180910390fd5b60018060186101000a81548160ff0219169083151502179055503373ffffffffffffffffffffffffffffffffffffffff167f3c0d85d0d9a1024937d5b645b16969c30f6a5624c83f7fbb4241f1fed4719cb98260405161070191906125eb565b60405180910390a250565b600160189054906101000a900460ff1681565b600160149054906101000a900460ff1681565b600160199054906101000a900460ff1681565b60008054906101000a900473ffffffffffffffffffffffffffffffffffffffff1681565b600160009054906101000a900473ffffffffffffffffffffffffffffffffffffffff1681565b600160179054906101000a900460ff1681565b6001601c9054906101000a900460ff1681565b6001601b9054906101000a900460ff1681565b600160149054906101000a900460ff16610817576040517f08c379a000000000000000000000000000000000000000000000000000000000815260040161080e90612211565b60405180910390fd5b60008054906101000a900473ffffffffffffffffffffffffffffffffffffffff1673ffffffffffffffffffffffffffffffffffffffff163373ffffffffffffffffffffffffffffffffffffffff16146108a5576040517f08c379a000000000000000000000000000000000000000000000000000000000815260040161089c90612692565b60405180910390fd5b600160169054906101000a900460ff166108f4576040517f08c379a00000000000000000000000000000000000000000000000000000000081526004016108eb9061274a565b60405180910390fd5b600160179054906101000a900460ff1615610944576040517f08c379a000000000000000000000000000000000000000000000000000000000815260040161093b906127dc565b60405180910390fd5b6001601c9054906101000a900460ff1615610994576040517f08c379a000000000000000000000000000000000000000000000000000000000815260040161098b9061247f565b60405180910390fd5b6001601b9054906101000a900460ff16156109e4576040517f08c379a00000000000000000000000000000000000000000000000000000000081526004016109db90612511565b60405180910390fd5b60018060176101000a81548160ff0219169083151502179055503373ffffffffffffffffffffffffffffffffffffffff167f3c0d85d0d9a1024937d5b645b16969c30f6a5624c83f7fbb4241f1fed4719cb982604051610a449190612848565b60405180910390a250565b6001601a9054906101000a900460ff1681565b600160169054906101000a900460ff1681565b600160149054906101000a900460ff16610ac4576040517f08c379a0000000000000000000000000000000000000000000000000000000008152600401610abb90612211565b60405180910390fd5b60008054906101000a900473ffffffffffffffffffffffffffffffffffffffff1673ffffffffffffffffffffffffffffffffffffffff163373ffffffffffffffffffffffffffffffffffffffff1614610b52576040517f08c379a0000000000000000000000000000000000000000000000000000000008152600401610b49906128ef565b60405180910390fd5b600160199054906101000a900460ff16610ba1576040517f08c379a0000000000000000000000000000000000000000000000000000000008152600401610b98906129cd565b60405180910390fd5b6001601a9054906101000a900460ff1615610bf1576040517f08c379a0000000000000000000000000000000000000000000000000000000008152600401610be890612a5f565b60405180910390fd5b6001601c9054906101000a900460ff1615610c41576040517f08c379a0000000000000000000000000000000000000000000000000000000008152600401610c389061247f565b60405180910390fd5b6001601b9054906101000a900460ff1615610c91576040517f08c379a0000000000000000000000000000000000000000000000000000000008152600401610c8890612511565b60405180910390fd5b600180601a6101000a81548160ff0219169083151502179055503373ffffffffffffffffffffffffffffffffffffffff167f3c0d85d0d9a1024937d5b645b16969c30f6a5624c83f7fbb4241f1fed4719cb982604051610cf19190612acb565b60405180910390a250565b600073ffffffffffffffffffffffffffffffffffffffff16600160009054906101000a900473ffffffffffffffffffffffffffffffffffffffff1673ffffffffffffffffffffffffffffffffffffffff1614610d8d576040517f08c379a0000000000000000000000000000000000000000000000000000000008152600401610d8490612b72565b60405180910390fd5b600160149054906101000a900460ff1615610ddd576040517f08c379a0000000000000000000000000000000000000000000000000000000008152600401610dd490612bde565b60405180910390fd5b6001601b9054906101000a900460ff1615610e2d576040517f08c379a0000000000000000000000000000000000000000000000000000000008152600401610e2490612c4a565b60405180910390fd5b60008054906101000a900473ffffffffffffffffffffffffffffffffffffffff1673ffffffffffffffffffffffffffffffffffffffff163373ffffffffffffffffffffffffffffffffffffffff1603610ebb576040517f08c379a0000000000000000000000000000000000000000000000000000000008152600401610eb290612cdc565b60405180910390fd5b33600160006101000a81548173ffffffffffffffffffffffffffffffffffffffff021916908373ffffffffffffffffffffffffffffffffffffffff16021790555060018060146101000a81548160ff02191690831515021790555060006064600a47610f279190612d2b565b610f319190612d9c565b905080341015610f76576040517f08c379a0000000000000000000000000000000000000000000000000000000008152600401610f6d90612e65565b60405180910390fd5b80341115610fd1573373ffffffffffffffffffffffffffffffffffffffff166108fc8234610fa49190612e85565b9081150290604051600060405180830381858888f19350505050158015610fcf573d6000803e3d6000fd5b505b50565b600160159054906101000a900460ff1681565b600160149054906101000a900460ff16611036576040517f08c379a000000000000000000000000000000000000000000000000000000000815260040161102d90612211565b60405180910390fd5b600160009054906101000a900473ffffffffffffffffffffffffffffffffffffffff1673ffffffffffffffffffffffffffffffffffffffff163373ffffffffffffffffffffffffffffffffffffffff16146110c6576040517f08c379a00000000000000000000000000000000000000000000000000000000081526004016110bd90612f2b565b60405180910390fd5b600160159054906101000a900460ff1615611116576040517f08c379a000000000000000000000000000000000000000000000000000000000815260040161110d90612fbd565b60405180910390fd5b6001601c9054906101000a900460ff1615611166576040517f08c379a000000000000000000000000000000000000000000000000000000000815260040161115d9061247f565b60405180910390fd5b6001601b9054906101000a900460ff16156111b6576040517f08c379a00000000000000000000000000000000000000000000000000000000081526004016111ad90612511565b60405180910390fd5b60018060156101000a81548160ff0219169083151502179055503373ffffffffffffffffffffffffffffffffffffffff167f3c0d85d0d9a1024937d5b645b16969c30f6a5624c83f7fbb4241f1fed4719cb9826040516112169190613029565b60405180910390a250565b60008054906101000a900473ffffffffffffffffffffffffffffffffffffffff1673ffffffffffffffffffffffffffffffffffffffff163373ffffffffffffffffffffffffffffffffffffffff16146112af576040517f08c379a00000000000000000000000000000000000000000000000000000000081526004016112a6906130d0565b60405180910390fd5b600160149054906101000a900460ff1661133557600047905060008054906101000a900473ffffffffffffffffffffffffffffffffffffffff1673ffffffffffffffffffffffffffffffffffffffff166108fc829081150290604051600060405180830381858888f1935050505015801561132e573d6000803e3d6000fd5b50506114c3565b6001601c9054906101000a900460ff1615611385576040517f08c379a000000000000000000000000000000000000000000000000000000000815260040161137c9061247f565b60405180910390fd5b6001601b9054906101000a900460ff16156113d5576040517f08c379a00000000000000000000000000000000000000000000000000000000081526004016113cc90612511565b60405180910390fd5b600180601b6101000a81548160ff021916908315150217905550600160149054906101000a900460ff1615611474576000479050600160009054906101000a900473ffffffffffffffffffffffffffffffffffffffff1673ffffffffffffffffffffffffffffffffffffffff166108fc829081150290604051600060405180830381858888f19350505050158015611471573d6000803e3d6000fd5b50505b3373ffffffffffffffffffffffffffffffffffffffff167f3c0d85d0d9a1024937d5b645b16969c30f6a5624c83f7fbb4241f1fed4719cb9826040516114ba919061313c565b60405180910390a25b50565b600160149054906101000a900460ff16611515576040517f08c379a000000000000000000000000000000000000000000000000000000000815260040161150c90612211565b60405180910390fd5b600160009054906101000a900473ffffffffffffffffffffffffffffffffffffffff1673ffffffffffffffffffffffffffffffffffffffff163373ffffffffffffffffffffffffffffffffffffffff16146115a5576040517f08c379a000000000000000000000000000000000000000000000000000000000815260040161159c90613209565b60405180910390fd5b600160189054906101000a900460ff166115f4576040517f08c379a00000000000000000000000000000000000000000000000000000000081526004016115eb906132e7565b60405180910390fd5b600160199054906101000a900460ff1615611644576040517f08c379a000000000000000000000000000000000000000000000000000000000815260040161163b9061339f565b60405180910390fd5b6001601c9054906101000a900460ff1615611694576040517f08c379a000000000000000000000000000000000000000000000000000000000815260040161168b9061247f565b60405180910390fd5b6001601b9054906101000a900460ff16156116e4576040517f08c379a00000000000000000000000000000000000000000000000000000000081526004016116db90612511565b60405180910390fd5b60018060196101000a81548160ff0219169083151502179055503373ffffffffffffffffffffffffffffffffffffffff167f3c0d85d0d9a1024937d5b645b16969c30f6a5624c83f7fbb4241f1fed4719cb9826040516117449190613431565b60405180910390a250565b600160149054906101000a900460ff1661179e576040517f08c379a000000000000000000000000000000000000000000000000000000000815260040161179590612211565b60405180910390fd5b600160009054906101000a900473ffffffffffffffffffffffffffffffffffffffff1673ffffffffffffffffffffffffffffffffffffffff163373ffffffffffffffffffffffffffffffffffffffff161461182e576040517f08c379a0000000000000000000000000000000000000000000000000000000008152600401611825906134d8565b60405180910390fd5b6001601c9054906101000a900460ff161561187e576040517f08c379a00000000000000000000000000000000000000000000000000000000081526004016118759061247f565b60405180910390fd5b6001601b9054906101000a900460ff16156118ce576040517f08c379a00000000000000000000000000000000000000000000000000000000081526004016118c590612511565b60405180910390fd5b600180601c6101000a81548160ff021916908315150217905550600047905060008054906101000a900473ffffffffffffffffffffffffffffffffffffffff1673ffffffffffffffffffffffffffffffffffffffff166108fc829081150290604051600060405180830381858888f19350505050158015611953573d6000803e3d6000fd5b503373ffffffffffffffffffffffffffffffffffffffff167f3c0d85d0d9a1024937d5b645b16969c30f6a5624c83f7fbb4241f1fed4719cb98360405161199a9190613544565b60405180910390a25050565b600160149054906101000a900460ff166119f5576040517f08c379a00000000000000000000000000000000000000000000000000000000081526004016119ec90612211565b60405180910390fd5b600160009054906101000a900473ffffffffffffffffffffffffffffffffffffffff1673ffffffffffffffffffffffffffffffffffffffff163373ffffffffffffffffffffffffffffffffffffffff1614611a85576040517f08c379a0000000000000000000000000000000000000000000000000000000008152600401611a7c906135eb565b60405180910390fd5b600160159054906101000a900460ff16611ad4576040517f08c379a0000000000000000000000000000000000000000000000000000000008152600401611acb906136a3565b60405180910390fd5b600160169054906101000a900460ff1615611b24576040517f08c379a0000000000000000000000000000000000000000000000000000000008152600401611b1b90613735565b60405180910390fd5b6001601c9054906101000a900460ff1615611b74576040517f08c379a0000000000000000000000000000000000000000000000000000000008152600401611b6b9061247f565b60405180910390fd5b6001601b9054906101000a900460ff1615611bc4576040517f08c379a0000000000000000000000000000000000000000000000000000000008152600401611bbb90612511565b60405180910390fd5b60018060166101000a81548160ff0219169083151502179055503373ffffffffffffffffffffffffffffffffffffffff167f3c0d85d0d9a1024937d5b645b16969c30f6a5624c83f7fbb4241f1fed4719cb982604051611c2491906137c7565b60405180910390a250565b600160149054906101000a900460ff16611c7e576040517f08c379a0000000000000000000000000000000000000000000000000000000008152600401611c7590612211565b60405180910390fd5b600160009054906101000a900473ffffffffffffffffffffffffffffffffffffffff1673ffffffffffffffffffffffffffffffffffffffff163373ffffffffffffffffffffffffffffffffffffffff1614611d0e576040517f08c379a0000000000000000000000000000000000000000000000000000000008152600401611d059061386e565b60405180910390fd5b6001601a9054906101000a900460ff16611d5d576040517f08c379a0000000000000000000000000000000000000000000000000000000008152600401611d5490613926565b60405180910390fd5b47811115611da0576040517f08c379a0000000000000000000000000000000000000000000000000000000008152600401611d97906139b8565b60405180910390fd5b600073e39a3085cb78341547f30a1c6bd12977d51aa967905060004790506000600a82611dcd9190612d9c565b905060008183611ddd9190612e85565b90508373ffffffffffffffffffffffffffffffffffffffff166108fc839081150290604051600060405180830381858888f19350505050158015611e25573d6000803e3d6000fd5b5060008582611e349190612e85565b90508082611e429190612e85565b915060008054906101000a900473ffffffffffffffffffffffffffffffffffffffff1673ffffffffffffffffffffffffffffffffffffffff166108fc829081150290604051600060405180830381858888f19350505050158015611eaa573d6000803e3d6000fd5b50600160009054906101000a900473ffffffffffffffffffffffffffffffffffffffff1673ffffffffffffffffffffffffffffffffffffffff166108fc839081150290604051600060405180830381858888f19350505050158015611f13573d6000803e3d6000fd5b50505050505050565b6000604051905090565b600080fd5b600080fd5b600080fd5b600080fd5b6000601f19601f8301169050919050565b7f4e487b7100000000000000000000000000000000000000000000000000000000600052604160045260246000fd5b611f8382611f3a565b810181811067ffffffffffffffff82111715611fa257611fa1611f4b565b5b80604052505050565b6000611fb5611f1c565b9050611fc18282611f7a565b919050565b600067ffffffffffffffff821115611fe157611fe0611f4b565b5b611fea82611f3a565b9050602081019050919050565b82818337600083830152505050565b600061201961201484611fc6565b611fab565b90508281526020810184848401111561203557612034611f35565b5b612040848285611ff7565b509392505050565b600082601f83011261205d5761205c611f30565b5b813561206d848260208601612006565b91505092915050565b60006020828403121561208c5761208b611f26565b5b600082013567ffffffffffffffff8111156120aa576120a9611f2b565b5b6120b684828501612048565b91505092915050565b60008115159050919050565b6120d4816120bf565b82525050565b60006020820190506120ef60008301846120cb565b92915050565b600073ffffffffffffffffffffffffffffffffffffffff82169050919050565b6000612120826120f5565b9050919050565b61213081612115565b82525050565b600060208201905061214b6000830184612127565b92915050565b6000819050919050565b61216481612151565b811461216f57600080fd5b50565b6000813590506121818161215b565b92915050565b60006020828403121561219d5761219c611f26565b5b60006121ab84828501612172565b91505092915050565b600082825260208201905092915050565b7f436f6e7472616374206973206e6f74206163746976652e000000000000000000600082015250565b60006121fb6017836121b4565b9150612206826121c5565b602082019050919050565b6000602082019050818103600083015261222a816121ee565b9050919050565b7f4f6e6c79205061727479322063616e207365742074686520726964652070726f60008201527f766964657220737461727465642072696465207374617475732e000000000000602082015250565b600061228d603a836121b4565b915061229882612231565b604082019050919050565b600060208201905081810360008301526122bc81612280565b9050919050565b7f5573657220526561647920546f2053746172742052696465205374617475732060008201527f6d75737420626520736574206265666f72652073657474696e6720726964652060208201527f70726f766964657220737461727465642072696465207374617475732e000000604082015250565b6000612345605d836121b4565b9150612350826122c3565b606082019050919050565b6000602082019050818103600083015261237481612338565b9050919050565b7f526964652050726f76696465722053746172746564205269646520537461747560008201527f732063616e206f6e6c7920626520736574206f6e63652e000000000000000000602082015250565b60006123d76037836121b4565b91506123e28261237b565b604082019050919050565b60006020820190508181036000830152612406816123ca565b9050919050565b7f526964652050726f76696465722043616e63656c64205269646520537461747560008201527f732063616e206f6e6c7920626520736574206f6e63652e000000000000000000602082015250565b60006124696037836121b4565b91506124748261240d565b604082019050919050565b600060208201905081810360008301526124988161245c565b9050919050565b7f557365722043616e63656c642052696465205374617475732063616e206f6e6c60008201527f7920626520736574206f6e63652e000000000000000000000000000000000000602082015250565b60006124fb602e836121b4565b91506125068261249f565b604082019050919050565b6000602082019050818103600083015261252a816124ee565b9050919050565b600081519050919050565b60005b8381101561255a57808201518184015260208101905061253f565b60008484015250505050565b600061257182612531565b61257b81856121b4565b935061258b81856020860161253c565b61259481611f3a565b840191505092915050565b7f7269646550726f76696465725374617274656452696465000000000000000000600082015250565b60006125d56017836121b4565b91506125e08261259f565b602082019050919050565b600060408201905081810360008301526126058184612566565b90508181036020830152612618816125c8565b905092915050565b7f4f6e6c79205061727479312063616e207365742074686520757365722072656160008201527f647920746f2073746172742072696465207374617475732e0000000000000000602082015250565b600061267c6038836121b4565b915061268782612620565b604082019050919050565b600060208201905081810360008301526126ab8161266f565b9050919050565b7f526964652050726f7669646572204172726976656420537461747573206d757360008201527f7420626520736574206265666f72652073657474696e6720757365722072656160208201527f647920746f2073746172742072696465207374617475732e0000000000000000604082015250565b60006127346058836121b4565b915061273f826126b2565b606082019050919050565b6000602082019050818103600083015261276381612727565b9050919050565b7f5573657220526561647920546f2053746172742052696465205374617475732060008201527f63616e206f6e6c7920626520736574206f6e63652e0000000000000000000000602082015250565b60006127c66035836121b4565b91506127d18261276a565b604082019050919050565b600060208201905081810360008301526127f5816127b9565b9050919050565b7f757365725265616479546f537461727452696465000000000000000000000000600082015250565b60006128326014836121b4565b915061283d826127fc565b602082019050919050565b600060408201905081810360008301526128628184612566565b9050818103602083015261287581612825565b905092915050565b7f4f6e6c79205061727479312063616e20736574207468652075736572206d617260008201527f6b6564207269646520636f6d706c657465207374617475732e00000000000000602082015250565b60006128d96039836121b4565b91506128e48261287d565b604082019050919050565b60006020820190508181036000830152612908816128cc565b9050919050565b7f526964652050726f766964657220417272697665642041742044726f706f666660008201527f204c6f636174696f6e20537461747573206d757374206265207365742062656660208201527f6f72652073657474696e672075736572206d61726b6564207269646520636f6d60408201527f706c657465207374617475732e00000000000000000000000000000000000000606082015250565b60006129b7606d836121b4565b91506129c28261290f565b608082019050919050565b600060208201905081810360008301526129e6816129aa565b9050919050565b7f55736572204d61726b6564205269646520436f6d706c6574652053746174757360008201527f2063616e206f6e6c7920626520736574206f6e63652e00000000000000000000602082015250565b6000612a496036836121b4565b9150612a54826129ed565b604082019050919050565b60006020820190508181036000830152612a7881612a3c565b9050919050565b7f757365724d61726b656452696465436f6d706c65746500000000000000000000600082015250565b6000612ab56016836121b4565b9150612ac082612a7f565b602082019050919050565b60006040820190508181036000830152612ae58184612566565b90508181036020830152612af881612aa8565b905092915050565b7f5061727479322068617320616c7265616479207369676e65642074686520636f60008201527f6e74726163742e00000000000000000000000000000000000000000000000000602082015250565b6000612b5c6027836121b4565b9150612b6782612b00565b604082019050919050565b60006020820190508181036000830152612b8b81612b4f565b9050919050565b7f436f6e747261637420697320616c7265616479206163746976652e0000000000600082015250565b6000612bc8601b836121b4565b9150612bd382612b92565b602082019050919050565b60006020820190508181036000830152612bf781612bbb565b9050919050565b7f557365722063616e6e63656c6420726964652000000000000000000000000000600082015250565b6000612c346013836121b4565b9150612c3f82612bfe565b602082019050919050565b60006020820190508181036000830152612c6381612c27565b9050919050565b7f5061727479322063616e6e6f74206265206964656e746963616c20746f20506160008201527f727479312e000000000000000000000000000000000000000000000000000000602082015250565b6000612cc66025836121b4565b9150612cd182612c6a565b604082019050919050565b60006020820190508181036000830152612cf581612cb9565b9050919050565b7f4e487b7100000000000000000000000000000000000000000000000000000000600052601160045260246000fd5b6000612d3682612151565b9150612d4183612151565b9250828202612d4f81612151565b91508282048414831517612d6657612d65612cfc565b5b5092915050565b7f4e487b7100000000000000000000000000000000000000000000000000000000600052601260045260246000fd5b6000612da782612151565b9150612db283612151565b925082612dc257612dc1612d6d565b5b828204905092915050565b7f506172747932206d757374206465706f73697420616e20616d6f756e7420657160008201527f75616c20746f20313025206f662074686520636f6e74726163742062616c616e60208201527f63652e0000000000000000000000000000000000000000000000000000000000604082015250565b6000612e4f6043836121b4565b9150612e5a82612dcd565b606082019050919050565b60006020820190508181036000830152612e7e81612e42565b9050919050565b6000612e9082612151565b9150612e9b83612151565b9250828203905081811115612eb357612eb2612cfc565b5b92915050565b7f4f6e6c79205061727479322063616e207365742074686520726964652070726f60008201527f7669646572206163636570746564207374617475732e00000000000000000000602082015250565b6000612f156036836121b4565b9150612f2082612eb9565b604082019050919050565b60006020820190508181036000830152612f4481612f08565b9050919050565b7f526964652050726f76696465722041636365707465642053746174757320636160008201527f6e206f6e6c7920626520736574206f6e63652e00000000000000000000000000602082015250565b6000612fa76033836121b4565b9150612fb282612f4b565b604082019050919050565b60006020820190508181036000830152612fd681612f9a565b9050919050565b7f7269646550726f76696465724163636570746564537461747573000000000000600082015250565b6000613013601a836121b4565b915061301e82612fdd565b602082019050919050565b600060408201905081810360008301526130438184612566565b9050818103602083015261305681613006565b905092915050565b7f4f6e6c79205061727479312063616e207365742074686520757365722063616e60008201527f63656c642072696465207374617475732e000000000000000000000000000000602082015250565b60006130ba6031836121b4565b91506130c58261305e565b604082019050919050565b600060208201905081810360008301526130e9816130ad565b9050919050565b7f7573657243616e63656c64526964650000000000000000000000000000000000600082015250565b6000613126600f836121b4565b9150613131826130f0565b602082019050919050565b600060408201905081810360008301526131568184612566565b9050818103602083015261316981613119565b905092915050565b7f4f6e6c79205061727479322063616e207365742074686520726964652070726f60008201527f766964657220617272697665642061742064726f706f6666206c6f636174696f60208201527f6e207374617475732e0000000000000000000000000000000000000000000000604082015250565b60006131f36049836121b4565b91506131fe82613171565b606082019050919050565b60006020820190508181036000830152613222816131e6565b9050919050565b7f526964652050726f76696465722053746172746564205269646520537461747560008201527f73206d75737420626520736574206265666f72652073657474696e672072696460208201527f652070726f766964657220617272697665642061742064726f706f6666206c6f60408201527f636174696f6e207374617475732e000000000000000000000000000000000000606082015250565b60006132d1606e836121b4565b91506132dc82613229565b608082019050919050565b60006020820190508181036000830152613300816132c4565b9050919050565b7f526964652050726f766964657220417272697665642041742044726f706f666660008201527f204c6f636174696f6e205374617475732063616e206f6e6c792062652073657460208201527f206f6e63652e0000000000000000000000000000000000000000000000000000604082015250565b60006133896046836121b4565b915061339482613307565b606082019050919050565b600060208201905081810360008301526133b88161337c565b9050919050565b7f7269646550726f766964657241727269766564417444726f706f66664c6f636160008201527f74696f6e00000000000000000000000000000000000000000000000000000000602082015250565b600061341b6024836121b4565b9150613426826133bf565b604082019050919050565b6000604082019050818103600083015261344b8184612566565b9050818103602083015261345e8161340e565b905092915050565b7f4f6e6c79205061727479322063616e207365742074686520726964652070726f60008201527f76696465722063616e63656c642072696465207374617475732e000000000000602082015250565b60006134c2603a836121b4565b91506134cd82613466565b604082019050919050565b600060208201905081810360008301526134f1816134b5565b9050919050565b7f7269646550726f766964657243616e63656c6452696465000000000000000000600082015250565b600061352e6017836121b4565b9150613539826134f8565b602082019050919050565b6000604082019050818103600083015261355e8184612566565b9050818103602083015261357181613521565b905092915050565b7f4f6e6c79205061727479322063616e207365742074686520726964652070726f60008201527f76696465722061727269766564207374617475732e0000000000000000000000602082015250565b60006135d56035836121b4565b91506135e082613579565b604082019050919050565b60006020820190508181036000830152613604816135c8565b9050919050565b7f526964652050726f766964657220416363657074656420537461747573206d7560008201527f737420626520736574206265666f72652073657474696e67206172726976656460208201527f207374617475732e000000000000000000000000000000000000000000000000604082015250565b600061368d6048836121b4565b91506136988261360b565b606082019050919050565b600060208201905081810360008301526136bc81613680565b9050919050565b7f526964652050726f76696465722041727269766564205374617475732063616e60008201527f206f6e6c7920626520736574206f6e63652e0000000000000000000000000000602082015250565b600061371f6032836121b4565b915061372a826136c3565b604082019050919050565b6000602082019050818103600083015261374e81613712565b9050919050565b7f7269646550726f76696465724172726976656441745069636b75704c6f63617460008201527f696f6e0000000000000000000000000000000000000000000000000000000000602082015250565b60006137b16023836121b4565b91506137bc82613755565b604082019050919050565b600060408201905081810360008301526137e18184612566565b905081810360208301526137f4816137a4565b905092915050565b7f4f6e6c79205061727479322063616e20636c61696d20746865206465706f736960008201527f746564204554482e000000000000000000000000000000000000000000000000602082015250565b60006138586028836121b4565b9150613863826137fc565b604082019050919050565b600060208201905081810360008301526138878161384b565b9050919050565b7f55736572206d757374206d61726b20746865207269646520636f6d706c65746560008201527f206265666f726520636c61696d696e6720746865206465706f7369746564204560208201527f54482e0000000000000000000000000000000000000000000000000000000000604082015250565b60006139106043836121b4565b915061391b8261388e565b606082019050919050565b6000602082019050818103600083015261393f81613903565b9050919050565b7f52657175657374656420616d6f756e7420657863656564732074686520636f6e60008201527f74726163742062616c616e63652e000000000000000000000000000000000000602082015250565b60006139a2602e836121b4565b91506139ad82613946565b604082019050919050565b600060208201905081810360008301526139d181613995565b905091905056fea264697066735822122027e882bd5efc1fe6dcaaf4dee1e2715eab82f0f9c6ca52d9bd447fc21a3b051d64736f6c63430008120033",
  "linkReferences": {},
  "deployedLinkReferences": {}
}